:10037F00E4F50DF50E120496E4F50DC3E50D950C9D
:10038F00E50B6480F8748098501BE4F50EC3E50EFE
:10039F009419748094805009AF0D1203EA050E80F2
:1003AF00EC050D80D6E4F50DC3E50D950AE509645E
:1003BF0080F874809850C1E4F50EC3E50E94327442
:1003CF008094805009AF0D120435050E80ECE4F5D2
:0B03DF00F87F32FE12047F050D80CD78
:1004960075CCFF75CB0075E2FF75E10053CAF043DA
:0304A600C90F2259
:0604B200538E7FD2AF2241
:1000030000000000000000000080808080808000ED
:1000130000404040C040400000202020E02020005D
:1000230000909090F090900000484848784848002D
:10003300002424243C24240000A424243C24A400DD
:1000430000D292929E92D20000E94949CF49E90039
:1000530000F42424E724F40000FA1212F312FA0045
:10006300007D090979097D0000BE8484BC84BE003B
:1000730000DE42425E425E0000EF21212F212F006D
:1000830000F7101017101700007B88080B080B00EF
:10009300003C440404040400009EA2828282820085
:1000A30000CF51414141410000E72820202020009A
:1000B30000F314101010100000798A0808080800D3
:1000C300003C450404040400001EA2828282020054
:1000D300008F51414141810000C728202020C000EA
:1000E30000E314101010E00000718A888888700003
:1000F3000038454444443800001C222222221C00BC
:10010300000E111111110E0000070808080807005E
:1001130000030404040403000001020202020100BC
:1001230000000101010100000000000000000000C8
:100133000000000000008000000000008080C0007C
:1001430000008080C040600000804040602030009C
:1001530000C0A0A030101800006050D098880C0098
:10016300003028E8CCC40600009894F466620300CB
:1001730000CC4A7A333101000066A5BD991800000E
:100183000033525ECC8C80000019292F6646C000D4
:10019300000C14173323600000068A8B99913000FA
:1001A300008345454C48980000C122222624CC00F8
:1001B30000E011111312E60000708888898973002A
:1001C3000038444444443900009C222222229C00EB
:1001D30000CE91919191CE0000E748C84848E700CE
:1001E300007324E42424F300003912F29212F9007C
:1001F300009C89F949897C0000CE447C24443E005C
:100203000067223E12221F0000B3919F89918F0045
:1002130000D9484F4448470000EC242722242300F8
:1002230000F6121311121100007B89090809080056
:10023300003D440404040400009E220202028200E2
:1002430000CF91818181C10000E748404040E00038
:1002530000F324202020F000007992909090780001
:10026300003C494848483C00001E242424241E0026
:10027300000F121212120F000007090909090700E3
:10028300000304040404030000010202020201004B
:100293000000010101010000000000000000000057
:1002A3006666667E666666007E06063E06067E0017
:1002B3007E060606060606007E06060606060600F7
:1002C3003C66666666663C00C6EEFED6C6C6C600DB
:1002D3003C66666666663C0066361E3E66663E00A3
:1002E3007E060606060606003E66666666663E00EF
:0804A900020B00540209000AD5
:1003EA008F0FE4F508C3E508940874809480503AA6
:1003FA0075F8FF75F008E50FA42403F582E5F034DB
:10040A0000F583E5822508F582E43583F583E493D4
:10041A00F5E87FFEA808EF08800123D8FDF5F87FEC
:0B042A00027E0012047F050880BB2248
:100435008F0FE4F508C3E50894087480948050395B
:1004450075F8FFE50F75F008A424A3F582E43402DE
:10045500F583E5822508F582E43583F583E493F594
:10046500E87FFEA808EF08800123D8FDF5F87F0294
:0A0475007E0012047F050880BC22FF
:10047F007D347C07ED1D70011C144C70F7EF1F705D
:06048F00011E144E70EA8C
:010495002244
:030000000202F306
:0C02F300787FE4F6D8FD75810F02033A15
:1002FF0002037FE493A3F8E493A34003F68001F293
:10030F0008DFF48029E493A3F85407240CC8C333FF
:10031F00C4540F4420C8834004F456800146F6DFCE
:10032F00E4800B01020408102040809004A9E47EB1
:10033F00019360BCA3FF543F30E509541FFEE493C3
:10034F00A360010ECF54C025E060A840B8E493A38A
:10035F00FAE493A3F8E493A3C8C582C8CAC583CAB5
:10036F00F0A3C8C582C8CAC583CADFE9DEE780BE6D
:0104B100004A
:00000001FF
